{
    "_format": "hh-sol-artifact-1",
    "contractName": "SparkZ",
    "sourceName": "contracts/Sparkz.sol",
    "abi": [
        {
            "inputs": [],
            "stateMutability": "nonpayable",
            "type": "constructor"
        },
        {
            "anonymous": false,
            "inputs": [
                {
                    "indexed": true,
                    "internalType": "address",
                    "name": "account",
                    "type": "address"
                },
                {
                    "indexed": true,
                    "internalType": "address",
                    "name": "operator",
                    "type": "address"
                },
                {
                    "indexed": false,
                    "internalType": "bool",
                    "name": "approved",
                    "type": "bool"
                }
            ],
            "name": "ApprovalForAll",
            "type": "event"
        },
        {
            "anonymous": false,
            "inputs": [
                {
                    "indexed": true,
                    "internalType": "address",
                    "name": "_from",
                    "type": "address"
                },
                {
                    "indexed": false,
                    "internalType": "enum SparkZ.JourneyType",
                    "name": "_journeyType",
                    "type": "uint8"
                },
                {
                    "indexed": false,
                    "internalType": "uint256",
                    "name": "_startLocation",
                    "type": "uint256"
                },
                {
                    "indexed": false,
                    "internalType": "uint256",
                    "name": "_endLocation",
                    "type": "uint256"
                },
                {
                    "indexed": false,
                    "internalType": "uint256",
                    "name": "_startTime",
                    "type": "uint256"
                },
                {
                    "indexed": false,
                    "internalType": "uint256",
                    "name": "_endTime",
                    "type": "uint256"
                },
                {
                    "indexed": false,
                    "internalType": "uint256",
                    "name": "_sparkz",
                    "type": "uint256"
                },
                {
                    "indexed": false,
                    "internalType": "uint256",
                    "name": "_shadowz",
                    "type": "uint256"
                },
                {
                    "indexed": false,
                    "internalType": "uint256",
                    "name": "_timeTaken",
                    "type": "uint256"
                },
                {
                    "indexed": false,
                    "internalType": "uint256",
                    "name": "_sparkzUser",
                    "type": "uint256"
                },
                {
                    "indexed": false,
                    "internalType": "uint256",
                    "name": "_shadowzUser",
                    "type": "uint256"
                }
            ],
            "name": "JourneyRegistered",
            "type": "event"
        },
        {
            "anonymous": false,
            "inputs": [
                {
                    "indexed": true,
                    "internalType": "address",
                    "name": "_from",
                    "type": "address"
                },
                {
                    "indexed": false,
                    "internalType": "address",
                    "name": "_registerAddress",
                    "type": "address"
                },
                {
                    "indexed": false,
                    "internalType": "address",
                    "name": "_owner",
                    "type": "address"
                },
                {
                    "indexed": false,
                    "internalType": "uint256",
                    "name": "_locationId",
                    "type": "uint256"
                },
                {
                    "indexed": false,
                    "internalType": "uint256",
                    "name": "_level",
                    "type": "uint256"
                },
                {
                    "indexed": false,
                    "internalType": "enum SparkZ.PlaceType",
                    "name": "_placeType",
                    "type": "uint8"
                },
                {
                    "indexed": false,
                    "internalType": "uint256",
                    "name": "_sparkz",
                    "type": "uint256"
                },
                {
                    "indexed": false,
                    "internalType": "uint256",
                    "name": "_shadowz",
                    "type": "uint256"
                },
                {
                    "indexed": false,
                    "internalType": "string",
                    "name": "_locationName",
                    "type": "string"
                },
                {
                    "indexed": false,
                    "internalType": "bytes32",
                    "name": "_locationHash",
                    "type": "bytes32"
                },
                {
                    "indexed": false,
                    "internalType": "int256",
                    "name": "_latitude",
                    "type": "int256"
                },
                {
                    "indexed": false,
                    "internalType": "int256",
                    "name": "_longitude",
                    "type": "int256"
                }
            ],
            "name": "LocationAdded",
            "type": "event"
        },
        {
            "anonymous": false,
            "inputs": [
                {
                    "indexed": true,
                    "internalType": "address",
                    "name": "operator",
                    "type": "address"
                },
                {
                    "indexed": true,
                    "internalType": "address",
                    "name": "from",
                    "type": "address"
                },
                {
                    "indexed": true,
                    "internalType": "address",
                    "name": "to",
                    "type": "address"
                },
                {
                    "indexed": false,
                    "internalType": "uint256[]",
                    "name": "ids",
                    "type": "uint256[]"
                },
                {
                    "indexed": false,
                    "internalType": "uint256[]",
                    "name": "values",
                    "type": "uint256[]"
                }
            ],
            "name": "TransferBatch",
            "type": "event"
        },
        {
            "anonymous": false,
            "inputs": [
                {
                    "indexed": true,
                    "internalType": "address",
                    "name": "operator",
                    "type": "address"
                },
                {
                    "indexed": true,
                    "internalType": "address",
                    "name": "from",
                    "type": "address"
                },
                {
                    "indexed": true,
                    "internalType": "address",
                    "name": "to",
                    "type": "address"
                },
                {
                    "indexed": false,
                    "internalType": "uint256",
                    "name": "id",
                    "type": "uint256"
                },
                {
                    "indexed": false,
                    "internalType": "uint256",
                    "name": "value",
                    "type": "uint256"
                }
            ],
            "name": "TransferSingle",
            "type": "event"
        },
        {
            "anonymous": false,
            "inputs": [
                {
                    "indexed": false,
                    "internalType": "string",
                    "name": "value",
                    "type": "string"
                },
                {
                    "indexed": true,
                    "internalType": "uint256",
                    "name": "id",
                    "type": "uint256"
                }
            ],
            "name": "URI",
            "type": "event"
        },
        {
            "anonymous": false,
            "inputs": [
                {
                    "indexed": true,
                    "internalType": "address",
                    "name": "_from",
                    "type": "address"
                },
                {
                    "indexed": false,
                    "internalType": "string",
                    "name": "_name",
                    "type": "string"
                },
                {
                    "indexed": false,
                    "internalType": "string",
                    "name": "_homeTown",
                    "type": "string"
                },
                {
                    "indexed": false,
                    "internalType": "string",
                    "name": "_country",
                    "type": "string"
                },
                {
                    "indexed": false,
                    "internalType": "uint256",
                    "name": "_sparkz",
                    "type": "uint256"
                },
                {
                    "indexed": false,
                    "internalType": "uint256",
                    "name": "_shadowz",
                    "type": "uint256"
                }
            ],
            "name": "UserRegistered",
            "type": "event"
        },
        {
            "inputs": [
                {
                    "internalType": "uint256",
                    "name": "_placeType",
                    "type": "uint256"
                },
                {
                    "internalType": "string",
                    "name": "_locationName",
                    "type": "string"
                },
                {
                    "internalType": "int256",
                    "name": "_latitude",
                    "type": "int256"
                },
                {
                    "internalType": "int256",
                    "name": "_longitude",
                    "type": "int256"
                },
                {
                    "internalType": "string",
                    "name": "_ipfsuri",
                    "type": "string"
                }
            ],
            "name": "addLocation",
            "outputs": [],
            "stateMutability": "nonpayable",
            "type": "function"
        },
        {
            "inputs": [
                {
                    "internalType": "address",
                    "name": "",
                    "type": "address"
                }
            ],
            "name": "addressToJourneyDetail",
            "outputs": [
                {
                    "internalType": "enum SparkZ.JourneyType",
                    "name": "journeyType",
                    "type": "uint8"
                },
                {
                    "internalType": "uint256",
                    "name": "startLocation",
                    "type": "uint256"
                },
                {
                    "internalType": "uint256",
                    "name": "startTime",
                    "type": "uint256"
                },
                {
                    "internalType": "uint256",
                    "name": "endLocation",
                    "type": "uint256"
                },
                {
                    "internalType": "uint256",
                    "name": "endTime",
                    "type": "uint256"
                },
                {
                    "internalType": "uint256",
                    "name": "sparkz",
                    "type": "uint256"
                },
                {
                    "internalType": "uint256",
                    "name": "shadowz",
                    "type": "uint256"
                },
                {
                    "internalType": "uint256",
                    "name": "timeTaken",
                    "type": "uint256"
                }
            ],
            "stateMutability": "view",
            "type": "function"
        },
        {
            "inputs": [
                {
                    "internalType": "address",
                    "name": "",
                    "type": "address"
                },
                {
                    "internalType": "uint256",
                    "name": "",
                    "type": "uint256"
                }
            ],
            "name": "addressToOwnedLocationIds",
            "outputs": [
                {
                    "internalType": "uint256",
                    "name": "",
                    "type": "uint256"
                }
            ],
            "stateMutability": "view",
            "type": "function"
        },
        {
            "inputs": [
                {
                    "internalType": "address",
                    "name": "",
                    "type": "address"
                }
            ],
            "name": "addressToUserDetail",
            "outputs": [
                {
                    "internalType": "string",
                    "name": "name",
                    "type": "string"
                },
                {
                    "internalType": "string",
                    "name": "hometown",
                    "type": "string"
                },
                {
                    "internalType": "string",
                    "name": "country",
                    "type": "string"
                },
                {
                    "internalType": "uint256",
                    "name": "sparkz",
                    "type": "uint256"
                },
                {
                    "internalType": "uint256",
                    "name": "shadowz",
                    "type": "uint256"
                },
                {
                    "internalType": "bool",
                    "name": "isVerified",
                    "type": "bool"
                }
            ],
            "stateMutability": "view",
            "type": "function"
        },
        {
            "inputs": [
                {
                    "internalType": "uint256",
                    "name": "_locationId",
                    "type": "uint256"
                },
                {
                    "internalType": "uint256",
                    "name": "_sparkz",
                    "type": "uint256"
                },
                {
                    "internalType": "address",
                    "name": "_address",
                    "type": "address"
                }
            ],
            "name": "attack",
            "outputs": [
                {
                    "internalType": "int256",
                    "name": "",
                    "type": "int256"
                }
            ],
            "stateMutability": "nonpayable",
            "type": "function"
        },
        {
            "inputs": [
                {
                    "internalType": "address",
                    "name": "account",
                    "type": "address"
                },
                {
                    "internalType": "uint256",
                    "name": "id",
                    "type": "uint256"
                }
            ],
            "name": "balanceOf",
            "outputs": [
                {
                    "internalType": "uint256",
                    "name": "",
                    "type": "uint256"
                }
            ],
            "stateMutability": "view",
            "type": "function"
        },
        {
            "inputs": [
                {
                    "internalType": "address[]",
                    "name": "accounts",
                    "type": "address[]"
                },
                {
                    "internalType": "uint256[]",
                    "name": "ids",
                    "type": "uint256[]"
                }
            ],
            "name": "balanceOfBatch",
            "outputs": [
                {
                    "internalType": "uint256[]",
                    "name": "",
                    "type": "uint256[]"
                }
            ],
            "stateMutability": "view",
            "type": "function"
        },
        {
            "inputs": [
                {
                    "internalType": "string",
                    "name": "_string",
                    "type": "string"
                }
            ],
            "name": "hash",
            "outputs": [
                {
                    "internalType": "bytes32",
                    "name": "",
                    "type": "bytes32"
                }
            ],
            "stateMutability": "pure",
            "type": "function"
        },
        {
            "inputs": [
                {
                    "internalType": "address",
                    "name": "account",
                    "type": "address"
                },
                {
                    "internalType": "address",
                    "name": "operator",
                    "type": "address"
                }
            ],
            "name": "isApprovedForAll",
            "outputs": [
                {
                    "internalType": "bool",
                    "name": "",
                    "type": "bool"
                }
            ],
            "stateMutability": "view",
            "type": "function"
        },
        {
            "inputs": [],
            "name": "locationId",
            "outputs": [
                {
                    "internalType": "uint256",
                    "name": "",
                    "type": "uint256"
                }
            ],
            "stateMutability": "view",
            "type": "function"
        },
        {
            "inputs": [
                {
                    "internalType": "uint256",
                    "name": "",
                    "type": "uint256"
                }
            ],
            "name": "locationIdToLocationDetail",
            "outputs": [
                {
                    "internalType": "enum SparkZ.PlaceType",
                    "name": "placeType",
                    "type": "uint8"
                },
                {
                    "internalType": "address",
                    "name": "registerAddress",
                    "type": "address"
                },
                {
                    "internalType": "address",
                    "name": "owner",
                    "type": "address"
                },
                {
                    "internalType": "uint256",
                    "name": "level",
                    "type": "uint256"
                },
                {
                    "internalType": "string",
                    "name": "locationName",
                    "type": "string"
                },
                {
                    "internalType": "uint256",
                    "name": "locationId",
                    "type": "uint256"
                },
                {
                    "internalType": "bytes32",
                    "name": "locationHash",
                    "type": "bytes32"
                },
                {
                    "internalType": "int256",
                    "name": "latitude",
                    "type": "int256"
                },
                {
                    "internalType": "int256",
                    "name": "longitude",
                    "type": "int256"
                },
                {
                    "internalType": "uint256",
                    "name": "sparkz",
                    "type": "uint256"
                },
                {
                    "internalType": "uint256",
                    "name": "shadowz",
                    "type": "uint256"
                }
            ],
            "stateMutability": "view",
            "type": "function"
        },
        {
            "inputs": [
                {
                    "internalType": "enum SparkZ.JourneyType",
                    "name": "_journeyType",
                    "type": "uint8"
                },
                {
                    "internalType": "uint256",
                    "name": "_startLocationId",
                    "type": "uint256"
                },
                {
                    "internalType": "uint256",
                    "name": "_startTime",
                    "type": "uint256"
                },
                {
                    "internalType": "uint256",
                    "name": "_endLocationId",
                    "type": "uint256"
                },
                {
                    "internalType": "uint256",
                    "name": "_endTime",
                    "type": "uint256"
                },
                {
                    "internalType": "uint256",
                    "name": "_sparkz",
                    "type": "uint256"
                },
                {
                    "internalType": "uint256",
                    "name": "_shadowz",
                    "type": "uint256"
                }
            ],
            "name": "registerJourney",
            "outputs": [],
            "stateMutability": "nonpayable",
            "type": "function"
        },
        {
            "inputs": [
                {
                    "internalType": "string",
                    "name": "_name",
                    "type": "string"
                },
                {
                    "internalType": "string",
                    "name": "_hometown",
                    "type": "string"
                },
                {
                    "internalType": "string",
                    "name": "_country",
                    "type": "string"
                }
            ],
            "name": "registerUser",
            "outputs": [],
            "stateMutability": "nonpayable",
            "type": "function"
        },
        {
            "inputs": [
                {
                    "internalType": "uint256",
                    "name": "",
                    "type": "uint256"
                }
            ],
            "name": "registeredUsers",
            "outputs": [
                {
                    "internalType": "address",
                    "name": "",
                    "type": "address"
                }
            ],
            "stateMutability": "view",
            "type": "function"
        },
        {
            "inputs": [
                {
                    "internalType": "address",
                    "name": "from",
                    "type": "address"
                },
                {
                    "internalType": "address",
                    "name": "to",
                    "type": "address"
                },
                {
                    "internalType": "uint256[]",
                    "name": "ids",
                    "type": "uint256[]"
                },
                {
                    "internalType": "uint256[]",
                    "name": "amounts",
                    "type": "uint256[]"
                },
                {
                    "internalType": "bytes",
                    "name": "data",
                    "type": "bytes"
                }
            ],
            "name": "safeBatchTransferFrom",
            "outputs": [],
            "stateMutability": "nonpayable",
            "type": "function"
        },
        {
            "inputs": [
                {
                    "internalType": "address",
                    "name": "from",
                    "type": "address"
                },
                {
                    "internalType": "address",
                    "name": "to",
                    "type": "address"
                },
                {
                    "internalType": "uint256",
                    "name": "id",
                    "type": "uint256"
                },
                {
                    "internalType": "uint256",
                    "name": "amount",
                    "type": "uint256"
                },
                {
                    "internalType": "bytes",
                    "name": "data",
                    "type": "bytes"
                }
            ],
            "name": "safeTransferFrom",
            "outputs": [],
            "stateMutability": "nonpayable",
            "type": "function"
        },
        {
            "inputs": [
                {
                    "internalType": "address",
                    "name": "operator",
                    "type": "address"
                },
                {
                    "internalType": "bool",
                    "name": "approved",
                    "type": "bool"
                }
            ],
            "name": "setApprovalForAll",
            "outputs": [],
            "stateMutability": "nonpayable",
            "type": "function"
        },
        {
            "inputs": [
                {
                    "internalType": "bytes4",
                    "name": "interfaceId",
                    "type": "bytes4"
                }
            ],
            "name": "supportsInterface",
            "outputs": [
                {
                    "internalType": "bool",
                    "name": "",
                    "type": "bool"
                }
            ],
            "stateMutability": "view",
            "type": "function"
        },
        {
            "inputs": [
                {
                    "internalType": "uint256",
                    "name": "_locationId",
                    "type": "uint256"
                },
                {
                    "internalType": "uint256",
                    "name": "_shadowz",
                    "type": "uint256"
                },
                {
                    "internalType": "address",
                    "name": "_address",
                    "type": "address"
                }
            ],
            "name": "transferShadowz",
            "outputs": [],
            "stateMutability": "nonpayable",
            "type": "function"
        },
        {
            "inputs": [
                {
                    "internalType": "uint256",
                    "name": "_locationId",
                    "type": "uint256"
                },
                {
                    "internalType": "uint256",
                    "name": "_sparkz",
                    "type": "uint256"
                },
                {
                    "internalType": "address",
                    "name": "_address",
                    "type": "address"
                }
            ],
            "name": "transferSparkz",
            "outputs": [],
            "stateMutability": "nonpayable",
            "type": "function"
        },
        {
            "inputs": [
                {
                    "internalType": "uint256",
                    "name": "_locationId",
                    "type": "uint256"
                },
                {
                    "internalType": "uint256",
                    "name": "_shadowz",
                    "type": "uint256"
                },
                {
                    "internalType": "uint256",
                    "name": "_level",
                    "type": "uint256"
                }
            ],
            "name": "upgradePlace",
            "outputs": [],
            "stateMutability": "nonpayable",
            "type": "function"
        },
        {
            "inputs": [
                {
                    "internalType": "uint256",
                    "name": "_tokenId",
                    "type": "uint256"
                }
            ],
            "name": "uri",
            "outputs": [
                {
                    "internalType": "string",
                    "name": "",
                    "type": "string"
                }
            ],
            "stateMutability": "view",
            "type": "function"
        },
        {
            "inputs": [
                {
                    "internalType": "address",
                    "name": "",
                    "type": "address"
                }
            ],
            "name": "userRegistered",
            "outputs": [
                {
                    "internalType": "bool",
                    "name": "",
                    "type": "bool"
                }
            ],
            "stateMutability": "view",
            "type": "function"
        },
        {
            "inputs": [
                {
                    "internalType": "address",
                    "name": "userAddress",
                    "type": "address"
                }
            ],
            "name": "verfiyUser",
            "outputs": [],
            "stateMutability": "nonpayable",
            "type": "function"
        },
        {
            "inputs": [
                {
                    "internalType": "uint256[2]",
                    "name": "a",
                    "type": "uint256[2]"
                },
                {
                    "internalType": "uint256[2][2]",
                    "name": "b",
                    "type": "uint256[2][2]"
                },
                {
                    "internalType": "uint256[2]",
                    "name": "c",
                    "type": "uint256[2]"
                },
                {
                    "internalType": "uint256[1]",
                    "name": "input",
                    "type": "uint256[1]"
                }
            ],
            "name": "verifyLocation",
            "outputs": [],
            "stateMutability": "view",
            "type": "function"
        }
    ],
    "bytecode": "0x6080604052735fd6eb55d12e759a21c09ef703fe0cba1dc9d88d601c60006101000a81548173ffffffffffffffffffffffffffffffffffffffff021916908373ffffffffffffffffffffffffffffffffffffffff1602179055503480156200006657600080fd5b50604051806020016040528060008152506200008881620000d860201b60201c565b506000601b8190555033602460006101000a81548173ffffffffffffffffffffffffffffffffffffffff021916908373ffffffffffffffffffffffffffffffffffffffff16021790555062000209565b8060029080519060200190620000f0929190620000f4565b5050565b8280546200010290620001d3565b90600052602060002090601f01602090048101928262000126576000855562000172565b82601f106200014157805160ff191683800117855562000172565b8280016001018555821562000172579182015b828111156200017157825182559160200191906001019062000154565b5b50905062000181919062000185565b5090565b5b80821115620001a057600081600090555060010162000186565b5090565b7f4e487b7100000000000000000000000000000000000000000000000000000000600052602260045260246000fd5b60006002820490506001821680620001ec57607f821691505b60208210811415620002035762000202620001a4565b5b50919050565b615bc080620002196000396000f3fe608060405234801561001057600080fd5b50600436106101725760003560e01c8063a22cb465116100de578063d637dcfa11610097578063e4b0179611610071578063e4b01796146104c9578063e8aadc3f146104e5578063e985e9c514610503578063f242432a1461053357610172565b8063d637dcfa14610448578063daaf3d2e14610464578063dc3462f91461049457610172565b8063a22cb4651461035d578063a436c77914610379578063b411ee94146103b0578063b692b16c146103e0578063bccbc36c146103fc578063c7503d4d1461042c57610172565b80634e1273f4116101305780634e1273f41461025b5780636e78f10b1461028b5780637259e0f8146102bb57806376a9a574146102eb5780639255d989146103255780639daf4d201461034157610172565b8062fdd58e1461017757806301ffc9a7146101a75780630e89341c146101d757806329694519146102075780632eb2c2d6146102235780634a40a9321461023f575b600080fd5b610191600480360381019061018c9190613575565b61054f565b60405161019e91906135c4565b60405180910390f35b6101c160048036038101906101bc9190613637565b610618565b6040516101ce919061367f565b60405180910390f35b6101f160048036038101906101ec919061369a565b6106fa565b6040516101fe9190613760565b60405180910390f35b610221600480360381019061021c91906137a7565b61079f565b005b61023d60048036038101906102389190613a46565b610ea3565b005b61025960048036038101906102549190613bec565b610f44565b005b61027560048036038101906102709190613d62565b611434565b6040516102829190613e98565b60405180910390f35b6102a560048036038101906102a09190613575565b61154d565b6040516102b291906135c4565b60405180910390f35b6102d560048036038101906102d0919061369a565b61157d565b6040516102e29190613ec9565b60405180910390f35b6103056004803603810190610300919061369a565b6115bc565b60405161031c9b9a99989796959493929190613f83565b60405180910390f35b61033f600480360381019061033a9190614035565b6116eb565b005b61035b60048036038101906103569190614088565b6117fa565b005b610377600480360381019061037291906140e1565b6118ea565b005b610393600480360381019061038e9190614088565b611900565b6040516103a7989796959493929190614169565b60405180910390f35b6103ca60048036038101906103c591906141e7565b611955565b6040516103d79190614230565b60405180910390f35b6103fa60048036038101906103f5919061424b565b611985565b005b61041660048036038101906104119190614088565b611a6d565b604051610423919061367f565b60405180910390f35b61044660048036038101906104419190614035565b611a8d565b005b610462600480360381019061045d919061429e565b611b9c565b005b61047e60048036038101906104799190614035565b61207c565b60405161048b9190614345565b60405180910390f35b6104ae60048036038101906104a99190614088565b612141565b6040516104c096959493929190614360565b60405180910390f35b6104e360048036038101906104de91906145e9565b612322565b005b6104ed6124a4565b6040516104fa91906135c4565b60405180910390f35b61051d60048036038101906105189190614652565b6124aa565b60405161052a919061367f565b60405180910390f35b61054d60048036038101906105489190614692565b61253e565b005b60008073ffffffffffffffffffffffffffffffffffffffff168373ffffffffffffffffffffffffffffffffffffffff1614156105c0576040517f08c379a00000000000000000000000000000000000000000000000000000000081526004016105b79061479b565b60405180910390fd5b60008083815260200190815260200160002060008473ffffffffffffffffffffffffffffffffffffffff1673ffffffffffffffffffffffffffffffffffffffff16815260200190815260200160002054905092915050565b60007fd9b67a26000000000000000000000000000000000000000000000000000000007bffffffffffffffffffffffffffffffffffffffffffffffffffffffff1916827bffffffffffffffffffffffffffffffffffffffffffffffffffffffff191614806106e357507f0e89341c000000000000000000000000000000000000000000000000000000007bffffffffffffffffffffffffffffffffffffffffffffffffffffffff1916827bffffffffffffffffffffffffffffffffffffffffffffffffffffffff1916145b806106f357506106f2826125df565b5b9050919050565b606060236000838152602001908152602001600020805461071a906147ea565b80601f0160208091040260200160405190810160405280929190818152602001828054610746906147ea565b80156107935780601f1061076857610100808354040283529160200191610793565b820191906000526020600020905b81548152906001019060200180831161077657829003601f168201915b50505050509050919050565b33602160008273ffffffffffffffffffffffffffffffffffffffff1673ffffffffffffffffffffffffffffffffffffffff16815260200190815260200160002060009054906101000a900460ff1661082c576040517f08c379a000000000000000000000000000000000000000000000000000000000815260040161082390614868565b60405180910390fd5b600060028081111561084157610840613ee4565b5b600281111561085357610852613ee4565b5b89600281111561086657610865613ee4565b5b141561087e5761087786853361207c565b9050610b97565b88601f60003373ffffffffffffffffffffffffffffffffffffffff1673ffffffffffffffffffffffffffffffffffffffff16815260200190815260200160002060000160006101000a81548160ff021916908360028111156108e3576108e2613ee4565b5b021790555087601f60003373ffffffffffffffffffffffffffffffffffffffff1673ffffffffffffffffffffffffffffffffffffffff1681526020019081526020016000206001018190555085601f60003373ffffffffffffffffffffffffffffffffffffffff1673ffffffffffffffffffffffffffffffffffffffff1681526020019081526020016000206003018190555086601f60003373ffffffffffffffffffffffffffffffffffffffff1673ffffffffffffffffffffffffffffffffffffffff1681526020019081526020016000206002018190555084601f60003373ffffffffffffffffffffffffffffffffffffffff1673ffffffffffffffffffffffffffffffffffffffff1681526020019081526020016000206004018190555083601f60003373ffffffffffffffffffffffffffffffffffffffff1673ffffffffffffffffffffffffffffffffffffffff1681526020019081526020016000206005018190555082601f60003373ffffffffffffffffffffffffffffffffffffffff1673ffffffffffffffffffffffffffffffffffffffff168152602001908152602001600020600601819055508685610a9e91906148b7565b601f60003373ffffffffffffffffffffffffffffffffffffffff1673ffffffffffffffffffffffffffffffffffffffff1681526020019081526020016000206007018190555083601e60003373ffffffffffffffffffffffffffffffffffffffff1673ffffffffffffffffffffffffffffffffffffffff1681526020019081526020016000206003016000828254610b3691906148eb565b9250508190555082601e60003373ffffffffffffffffffffffffffffffffffffffff1673ffffffffffffffffffffffffffffffffffffffff1681526020019081526020016000206004016000828254610b8f91906148eb565b925050819055505b3373ffffffffffffffffffffffffffffffffffffffff167f641d6c7e223c68f931bb11f06e2d125e4e4e6a0f96d09c9dc4d21f21d517607f601f60003373ffffffffffffffffffffffffffffffffffffffff1673ffffffffffffffffffffffffffffffffffffffff16815260200190815260200160002060000160009054906101000a900460ff16601f60003373ffffffffffffffffffffffffffffffffffffffff1673ffffffffffffffffffffffffffffffffffffffff16815260200190815260200160002060010154601f60003373ffffffffffffffffffffffffffffffffffffffff1673ffffffffffffffffffffffffffffffffffffffff16815260200190815260200160002060030154601f60003373ffffffffffffffffffffffffffffffffffffffff1673ffffffffffffffffffffffffffffffffffffffff16815260200190815260200160002060020154601f60003373ffffffffffffffffffffffffffffffffffffffff1673ffffffffffffffffffffffffffffffffffffffff16815260200190815260200160002060040154601f60003373ffffffffffffffffffffffffffffffffffffffff1673ffffffffffffffffffffffffffffffffffffffff16815260200190815260200160002060050154601f60003373ffffffffffffffffffffffffffffffffffffffff1673ffffffffffffffffffffffffffffffffffffffff16815260200190815260200160002060060154601f60003373ffffffffffffffffffffffffffffffffffffffff1673ffffffffffffffffffffffffffffffffffffffff16815260200190815260200160002060070154601e60003373ffffffffffffffffffffffffffffffffffffffff1673ffffffffffffffffffffffffffffffffffffffff16815260200190815260200160002060030154601e60003373ffffffffffffffffffffffffffffffffffffffff1673ffffffffffffffffffffffffffffffffffffffff16815260200190815260200160002060040154604051610e909a99989796959493929190614941565b60405180910390a2505050505050505050565b610eab612649565b73ffffffffffffffffffffffffffffffffffffffff168573ffffffffffffffffffffffffffffffffffffffff161480610ef15750610ef085610eeb612649565b6124aa565b5b610f30576040517f08c379a0000000000000000000000000000000000000000000000000000000008152600401610f2790614a4f565b60405180910390fd5b610f3d8585858585612651565b5050505050565b3360011515601e60008373ffffffffffffffffffffffffffffffffffffffff1673ffffffffffffffffffffffffffffffffffffffff16815260200190815260200160002060050160009054906101000a900460ff16151514610fdb576040517f08c379a0000000000000000000000000000000000000000000000000000000008152600401610fd290614abb565b60405180910390fd5b85600e811115610fee57610fed613ee4565b5b60226000601b54815260200190815260200160002060000160006101000a81548160ff0219169083600e81111561102857611027613ee4565b5b02179055503360226000601b54815260200190815260200160002060000160016101000a81548173ffffffffffffffffffffffffffffffffffffffff021916908373ffffffffffffffffffffffffffffffffffffffff1602179055503360226000601b54815260200190815260200160002060010160006101000a81548173ffffffffffffffffffffffffffffffffffffffff021916908373ffffffffffffffffffffffffffffffffffffffff160217905550600060226000601b548152602001908152602001600020600201819055508460226000601b548152602001908152602001600020600301908051906020019061112592919061342a565b50601b5460226000601b548152602001908152602001600020600401819055508360226000601b548152602001908152602001600020600601819055508260226000601b5481526020019081526020016000206007018190555061118885611955565b60226000601b54815260200190815260200160002060050181905550600060226000601b54815260200190815260200160002060080181905550600060226000601b54815260200190815260200160002060090181905550602060003373ffffffffffffffffffffffffffffffffffffffff1673ffffffffffffffffffffffffffffffffffffffff168152602001908152602001600020601b54908060018154018082558091505060019003906000526020600020016000909190919091505561126633601b54600160405180602001604052806000815250612973565b611272601b5483612985565b3373ffffffffffffffffffffffffffffffffffffffff167f54277811d6e8f78ae559471317c21837c288f9bf2b4431110b7b2abc5c1c67fd60226000601b54815260200190815260200160002060000160019054906101000a900473ffffffffffffffffffffffffffffffffffffffff1660226000601b54815260200190815260200160002060010160009054906101000a900473ffffffffffffffffffffffffffffffffffffffff16601b5460226000601b5481526020019081526020016000206002015460226000601b54815260200190815260200160002060000160009054906101000a900460ff1660226000601b5481526020019081526020016000206008015460226000601b5481526020019081526020016000206009015460226000601b54815260200190815260200160002060030160226000601b5481526020019081526020016000206005015460226000601b5481526020019081526020016000206006015460226000601b5481526020019081526020016000206007015460405161140a9b9a99989796959493929190614b70565b60405180910390a26001601b600082825461142591906148eb565b92505081905550505050505050565b6060815183511461147a576040517f08c379a000000000000000000000000000000000000000000000000000000000815260040161147190614c94565b60405180910390fd5b6000835167ffffffffffffffff8111156114975761149661384e565b5b6040519080825280602002602001820160405280156114c55781602001602082028036833780820191505090505b50905060005b8451811015611542576115128582815181106114ea576114e9614cb4565b5b602002602001015185838151811061150557611504614cb4565b5b602002602001015161054f565b82828151811061152557611524614cb4565b5b6020026020010181815250508061153b90614ce3565b90506114cb565b508091505092915050565b60208052816000526040600020818154811061156857600080fd5b90600052602060002001600091509150505481565b601d818154811061158d57600080fd5b906000526020600020016000915054906101000a900473ffffffffffffffffffffffffffffffffffffffff1681565b60226020528060005260406000206000915090508060000160009054906101000a900460ff16908060000160019054906101000a900473ffffffffffffffffffffffffffffffffffffffff16908060010160009054906101000a900473ffffffffffffffffffffffffffffffffffffffff1690806002015490806003018054611644906147ea565b80601f0160208091040260200160405190810160405280929190818152602001828054611670906147ea565b80156116bd5780601f10611692576101008083540402835291602001916116bd565b820191906000526020600020905b8154815290600101906020018083116116a057829003601f168201915b505050505090806004015490806005015490806006015490806007015490806008015490806009015490508b565b81601e60008373ffffffffffffffffffffffffffffffffffffffff1673ffffffffffffffffffffffffffffffffffffffff168152602001908152602001600020600401541161176f576040517f08c379a000000000000000000000000000000000000000000000000000000000815260040161176690614d78565b60405180910390fd5b81601e60008373ffffffffffffffffffffffffffffffffffffffff1673ffffffffffffffffffffffffffffffffffffffff16815260200190815260200160002060040160008282546117c191906148b7565b92505081905550816022600085815260200190815260200160002060090160008282546117ee91906148eb565b92505081905550505050565b33602460009054906101000a900473ffffffffffffffffffffffffffffffffffffffff1673ffffffffffffffffffffffffffffffffffffffff163373ffffffffffffffffffffffffffffffffffffffff161461188b576040517f08c379a000000000000000000000000000000000000000000000000000000000815260040161188290614e0a565b60405180910390fd5b6001601e60008473ffffffffffffffffffffffffffffffffffffffff1673ffffffffffffffffffffffffffffffffffffffff16815260200190815260200160002060050160006101000a81548160ff0219169083151502179055505050565b6118fc6118f5612649565b8383612a13565b5050565b601f6020528060005260406000206000915090508060000160009054906101000a900460ff16908060010154908060020154908060030154908060040154908060050154908060060154908060070154905088565b6000816040516020016119689190614e66565b604051602081830303815290604052805190602001209050919050565b6103e860226000858152602001908152602001600020600201546119a99190614e7d565b82116119ea576040517f08c379a00000000000000000000000000000000000000000000000000000000081526004016119e190614f49565b60405180910390fd5b60226000848152602001908152602001600020600201548111611a42576040517f08c379a0000000000000000000000000000000000000000000000000000000008152600401611a3990614fdb565b60405180910390fd5b611a4d8383336116eb565b806022600085815260200190815260200160002060020181905550505050565b60216020528060005260406000206000915054906101000a900460ff1681565b81601e60008373ffffffffffffffffffffffffffffffffffffffff1673ffffffffffffffffffffffffffffffffffffffff1681526020019081526020016000206003015411611b11576040517f08c379a0000000000000000000000000000000000000000000000000000000008152600401611b0890615047565b60405180910390fd5b81601e60008373ffffffffffffffffffffffffffffffffffffffff1673ffffffffffffffffffffffffffffffffffffffff1681526020019081526020016000206003016000828254611b6391906148b7565b9250508190555081602260008581526020019081526020016000206008016000828254611b9091906148eb565b92505081905550505050565b60001515602160003373ffffffffffffffffffffffffffffffffffffffff1673ffffffffffffffffffffffffffffffffffffffff16815260200190815260200160002060009054906101000a900460ff16151514611c2f576040517f08c379a0000000000000000000000000000000000000000000000000000000008152600401611c26906150b3565b60405180910390fd5b6001602160003373ffffffffffffffffffffffffffffffffffffffff1673ffffffffffffffffffffffffffffffffffffffff16815260200190815260200160002060006101000a81548160ff021916908315150217905550601d339080600181540180825580915050600190039060005260206000200160009091909190916101000a81548173ffffffffffffffffffffffffffffffffffffffff021916908373ffffffffffffffffffffffffffffffffffffffff16021790555082601e60003373ffffffffffffffffffffffffffffffffffffffff1673ffffffffffffffffffffffffffffffffffffffff1681526020019081526020016000206000019080519060200190611d4092919061342a565b5081601e60003373ffffffffffffffffffffffffffffffffffffffff1673ffffffffffffffffffffffffffffffffffffffff1681526020019081526020016000206001019080519060200190611d9792919061342a565b5080601e60003373ffffffffffffffffffffffffffffffffffffffff1673ffffffffffffffffffffffffffffffffffffffff1681526020019081526020016000206002019080519060200190611dee92919061342a565b506000601e60003373ffffffffffffffffffffffffffffffffffffffff1673ffffffffffffffffffffffffffffffffffffffff168152602001908152602001600020600301819055506000601e60003373ffffffffffffffffffffffffffffffffffffffff1673ffffffffffffffffffffffffffffffffffffffff168152602001908152602001600020600401819055506000601e60003373ffffffffffffffffffffffffffffffffffffffff1673ffffffffffffffffffffffffffffffffffffffff16815260200190815260200160002060050160006101000a81548160ff0219169083151502179055503373ffffffffffffffffffffffffffffffffffffffff167fa369af3e14734600f589b0bf029678a5d9aaf7349f49cd8b4884417b0bdf59b1601e60003373ffffffffffffffffffffffffffffffffffffffff1673ffffffffffffffffffffffffffffffffffffffff168152602001908152602001600020600001601e60003373ffffffffffffffffffffffffffffffffffffffff1673ffffffffffffffffffffffffffffffffffffffff168152602001908152602001600020600101601e60003373ffffffffffffffffffffffffffffffffffffffff1673ffffffffffffffffffffffffffffffffffffffff168152602001908152602001600020600201601e60003373ffffffffffffffffffffffffffffffffffffffff1673ffffffffffffffffffffffffffffffffffffffff16815260200190815260200160002060030154601e60003373ffffffffffffffffffffffffffffffffffffffff1673ffffffffffffffffffffffffffffffffffffffff1681526020019081526020016000206004015460405161206f9594939291906150d3565b60405180910390a2505050565b6000602260008581526020019081526020016000206008015483116120d6576040517f08c379a00000000000000000000000000000000000000000000000000000000081526004016120cd90615187565b60405180910390fd5b6120e1848484611a8d565b816022600086815260200190815260200160002060010160006101000a81548173ffffffffffffffffffffffffffffffffffffffff021916908373ffffffffffffffffffffffffffffffffffffffff160217905550600190509392505050565b601e602052806000526040600020600091509050806000018054612164906147ea565b80601f0160208091040260200160405190810160405280929190818152602001828054612190906147ea565b80156121dd5780601f106121b2576101008083540402835291602001916121dd565b820191906000526020600020905b8154815290600101906020018083116121c057829003601f168201915b5050505050908060010180546121f2906147ea565b80601f016020809104026020016040519081016040528092919081815260200182805461221e906147ea565b801561226b5780601f106122405761010080835404028352916020019161226b565b820191906000526020600020905b81548152906001019060200180831161224e57829003601f168201915b505050505090806002018054612280906147ea565b80601f01602080910402602001604051908101604052809291908181526020018280546122ac906147ea565b80156122f95780601f106122ce576101008083540402835291602001916122f9565b820191906000526020600020905b8154815290600101906020018083116122dc57829003601f168201915b5050505050908060030154908060040154908060050160009054906101000a900460ff16905086565b33602160008273ffffffffffffffffffffffffffffffffffffffff1673ffffffffffffffffffffffffffffffffffffffff16815260200190815260200160002060009054906101000a900460ff166123af576040517f08c379a00000000000000000000000000000000000000000000000000000000081526004016123a690614868565b60405180910390fd5b6000601c60009054906101000a900473ffffffffffffffffffffffffffffffffffffffff1673ffffffffffffffffffffffffffffffffffffffff166343753b4d878787876040518563ffffffff1660e01b815260040161241294939291906153ad565b602060405180830381865afa15801561242f573d6000803e3d6000fd5b505050506040513d601f19601f820116820180604052508101906124539190615409565b9050600115158115151461249c576040517f08c379a000000000000000000000000000000000000000000000000000000000815260040161249390615482565b60405180910390fd5b505050505050565b601b5481565b6000600160008473ffffffffffffffffffffffffffffffffffffffff1673ffffffffffffffffffffffffffffffffffffffff16815260200190815260200160002060008373ffffffffffffffffffffffffffffffffffffffff1673ffffffffffffffffffffffffffffffffffffffff16815260200190815260200160002060009054906101000a900460ff16905092915050565b612546612649565b73ffffffffffffffffffffffffffffffffffffffff168573ffffffffffffffffffffffffffffffffffffffff16148061258c575061258b85612586612649565b6124aa565b5b6125cb576040517f08c379a00000000000000000000000000000000000000000000000000000000081526004016125c290614a4f565b60405180910390fd5b6125d88585858585612b80565b5050505050565b60007f01ffc9a7000000000000000000000000000000000000000000000000000000007bffffffffffffffffffffffffffffffffffffffffffffffffffffffff1916827bffffffffffffffffffffffffffffffffffffffffffffffffffffffff1916149050919050565b600033905090565b8151835114612695576040517f08c379a000000000000000000000000000000000000000000000000000000000815260040161268c90615514565b60405180910390fd5b600073ffffffffffffffffffffffffffffffffffffffff168473ffffffffffffffffffffffffffffffffffffffff161415612705576040517f08c379a00000000000000000000000000000000000000000000000000000000081526004016126fc906155a6565b60405180910390fd5b600061270f612649565b905061271f818787878787612e1c565b60005b84518110156128d05760008582815181106127405761273f614cb4565b5b60200260200101519050600085838151811061275f5761275e614cb4565b5b60200260200101519050600080600084815260200190815260200160002060008b73ffffffffffffffffffffffffffffffffffffffff1673ffffffffffffffffffffffffffffffffffffffff16815260200190815260200160002054905081811015612800576040517f08c379a00000000000000000000000000000000000000000000000000000000081526004016127f790615638565b60405180910390fd5b81810360008085815260200190815260200160002060008c73ffffffffffffffffffffffffffffffffffffffff1673ffffffffffffffffffffffffffffffffffffffff168152602001908152602001600020819055508160008085815260200190815260200160002060008b73ffffffffffffffffffffffffffffffffffffffff1673ffffffffffffffffffffffffffffffffffffffff16815260200190815260200160002060008282546128b591906148eb565b92505081905550505050806128c990614ce3565b9050612722565b508473ffffffffffffffffffffffffffffffffffffffff168673ffffffffffffffffffffffffffffffffffffffff168273ffffffffffffffffffffffffffffffffffffffff167f4a39dc06d4c0dbc64b70af90fd698a233a518aa5d07e595d983b8c0526c8f7fb8787604051612947929190615658565b60405180910390a461295d818787878787612e24565b61296b818787878787612e2c565b505050505050565b61297f84848484613004565b50505050565b60006023600084815260200190815260200160002080546129a5906147ea565b9050146129e7576040517f08c379a00000000000000000000000000000000000000000000000000000000081526004016129de906156db565b60405180910390fd5b80602360008481526020019081526020016000209080519060200190612a0e92919061342a565b505050565b8173ffffffffffffffffffffffffffffffffffffffff168373ffffffffffffffffffffffffffffffffffffffff161415612a82576040517f08c379a0000000000000000000000000000000000000000000000000000000008152600401612a799061576d565b60405180910390fd5b80600160008573ffffffffffffffffffffffffffffffffffffffff1673ffffffffffffffffffffffffffffffffffffffff16815260200190815260200160002060008473ffffffffffffffffffffffffffffffffffffffff1673ffffffffffffffffffffffffffffffffffffffff16815260200190815260200160002060006101000a81548160ff0219169083151502179055508173ffffffffffffffffffffffffffffffffffffffff168373ffffffffffffffffffffffffffffffffffffffff167f17307eab39ab6107e8899845ad3d59bd9653f200f220920489ca2b5937696c3183604051612b73919061367f565b60405180910390a3505050565b600073ffffffffffffffffffffffffffffffffffffffff168473ffffffffffffffffffffffffffffffffffffffff161415612bf0576040517f08c379a0000000000000000000000000000000000000000000000000000000008152600401612be7906155a6565b60405180910390fd5b6000612bfa612649565b90506000612c07856131b5565b90506000612c14856131b5565b9050612c24838989858589612e1c565b600080600088815260200190815260200160002060008a73ffffffffffffffffffffffffffffffffffffffff1673ffffffffffffffffffffffffffffffffffffffff16815260200190815260200160002054905085811015612cbb576040517f08c379a0000000000000000000000000000000000000000000000000000000008152600401612cb290615638565b60405180910390fd5b85810360008089815260200190815260200160002060008b73ffffffffffffffffffffffffffffffffffffffff1673ffffffffffffffffffffffffffffffffffffffff168152602001908152602001600020819055508560008089815260200190815260200160002060008a73ffffffffffffffffffffffffffffffffffffffff1673ffffffffffffffffffffffffffffffffffffffff1681526020019081526020016000206000828254612d7091906148eb565b925050819055508773ffffffffffffffffffffffffffffffffffffffff168973ffffffffffffffffffffffffffffffffffffffff168573ffffffffffffffffffffffffffffffffffffffff167fc3d58168c5ae7397731d063d5bbf3d657854427343f4c083240f7aacaa2d0f628a8a604051612ded92919061578d565b60405180910390a4612e03848a8a86868a612e24565b612e11848a8a8a8a8a61322f565b505050505050505050565b505050505050565b505050505050565b612e4b8473ffffffffffffffffffffffffffffffffffffffff16613407565b15612ffc578373ffffffffffffffffffffffffffffffffffffffff1663bc197c8187878686866040518663ffffffff1660e01b8152600401612e9195949392919061580b565b6020604051808303816000875af1925050508015612ecd57506040513d601f19601f82011682018060405250810190612eca9190615888565b60015b612f7357612ed96158c2565b806308c379a01415612f365750612eee6158e4565b80612ef95750612f38565b806040517f08c379a0000000000000000000000000000000000000000000000000000000008152600401612f2d9190613760565b60405180910390fd5b505b6040517f08c379a0000000000000000000000000000000000000000000000000000000008152600401612f6a906159ec565b60405180910390fd5b63bc197c8160e01b7bffffffffffffffffffffffffffffffffffffffffffffffffffffffff1916817bffffffffffffffffffffffffffffffffffffffffffffffffffffffff191614612ffa576040517f08c379a0000000000000000000000000000000000000000000000000000000008152600401612ff190615a7e565b60405180910390fd5b505b505050505050565b600073ffffffffffffffffffffffffffffffffffffffff168473ffffffffffffffffffffffffffffffffffffffff161415613074576040517f08c379a000000000000000000000000000000000000000000000000000000000815260040161306b90615b10565b60405180910390fd5b600061307e612649565b9050600061308b856131b5565b90506000613098856131b5565b90506130a983600089858589612e1c565b8460008088815260200190815260200160002060008973ffffffffffffffffffffffffffffffffffffffff1673ffffffffffffffffffffffffffffffffffffffff168152602001908152602001600020600082825461310891906148eb565b925050819055508673ffffffffffffffffffffffffffffffffffffffff16600073ffffffffffffffffffffffffffffffffffffffff168473ffffffffffffffffffffffffffffffffffffffff167fc3d58168c5ae7397731d063d5bbf3d657854427343f4c083240f7aacaa2d0f62898960405161318692919061578d565b60405180910390a461319d83600089858589612e24565b6131ac8360008989898961322f565b50505050505050565b60606000600167ffffffffffffffff8111156131d4576131d361384e565b5b6040519080825280602002602001820160405280156132025781602001602082028036833780820191505090505b509050828160008151811061321a57613219614cb4565b5b60200260200101818152505080915050919050565b61324e8473ffffffffffffffffffffffffffffffffffffffff16613407565b156133ff578373ffffffffffffffffffffffffffffffffffffffff1663f23a6e6187878686866040518663ffffffff1660e01b8152600401613294959493929190615b30565b6020604051808303816000875af19250505080156132d057506040513d601f19601f820116820180604052508101906132cd9190615888565b60015b613376576132dc6158c2565b806308c379a0141561333957506132f16158e4565b806132fc575061333b565b806040517f08c379a00000000000000000000000000000000000000000000000000000000081526004016133309190613760565b60405180910390fd5b505b6040517f08c379a000000000000000000000000000000000000000000000000000000000815260040161336d906159ec565b60405180910390fd5b63f23a6e6160e01b7bffffffffffffffffffffffffffffffffffffffffffffffffffffffff1916817bffffffffffffffffffffffffffffffffffffffffffffffffffffffff1916146133fd576040517f08c379a00000000000000000000000000000000000000000000000000000000081526004016133f490615a7e565b60405180910390fd5b505b505050505050565b6000808273ffffffffffffffffffffffffffffffffffffffff163b119050919050565b828054613436906147ea565b90600052602060002090601f016020900481019282613458576000855561349f565b82601f1061347157805160ff191683800117855561349f565b8280016001018555821561349f579182015b8281111561349e578251825591602001919060010190613483565b5b5090506134ac91906134b0565b5090565b5b808211156134c95760008160009055506001016134b1565b5090565b6000604051905090565b600080fd5b600080fd5b600073ffffffffffffffffffffffffffffffffffffffff82169050919050565b600061350c826134e1565b9050919050565b61351c81613501565b811461352757600080fd5b50565b60008135905061353981613513565b92915050565b6000819050919050565b6135528161353f565b811461355d57600080fd5b50565b60008135905061356f81613549565b92915050565b6000806040838503121561358c5761358b6134d7565b5b600061359a8582860161352a565b92505060206135ab85828601613560565b9150509250929050565b6135be8161353f565b82525050565b60006020820190506135d960008301846135b5565b92915050565b60007fffffffff0000000000000000000000000000000000000000000000000000000082169050919050565b613614816135df565b811461361f57600080fd5b50565b6000813590506136318161360b565b92915050565b60006020828403121561364d5761364c6134d7565b5b600061365b84828501613622565b91505092915050565b60008115159050919050565b61367981613664565b82525050565b60006020820190506136946000830184613670565b92915050565b6000602082840312156136b0576136af6134d7565b5b60006136be84828501613560565b91505092915050565b600081519050919050565b600082825260208201905092915050565b60005b838110156137015780820151818401526020810190506136e6565b83811115613710576000848401525b50505050565b6000601f19601f8301169050919050565b6000613732826136c7565b61373c81856136d2565b935061374c8185602086016136e3565b61375581613716565b840191505092915050565b6000602082019050818103600083015261377a8184613727565b905092915050565b6003811061378f57600080fd5b50565b6000813590506137a181613782565b92915050565b600080600080600080600060e0888a0312156137c6576137c56134d7565b5b60006137d48a828b01613792565b97505060206137e58a828b01613560565b96505060406137f68a828b01613560565b95505060606138078a828b01613560565b94505060806138188a828b01613560565b93505060a06138298a828b01613560565b92505060c061383a8a828b01613560565b91505092959891949750929550565b600080fd5b7f4e487b7100000000000000000000000000000000000000000000000000000000600052604160045260246000fd5b61388682613716565b810181811067ffffffffffffffff821117156138a5576138a461384e565b5b80604052505050565b60006138b86134cd565b90506138c4828261387d565b919050565b600067ffffffffffffffff8211156138e4576138e361384e565b5b602082029050602081019050919050565b600080fd5b600061390d613908846138c9565b6138ae565b905080838252602082019050602084028301858111156139305761392f6138f5565b5b835b8181101561395957806139458882613560565b845260208401935050602081019050613932565b5050509392505050565b600082601f83011261397857613977613849565b5b81356139888482602086016138fa565b91505092915050565b600080fd5b600067ffffffffffffffff8211156139b1576139b061384e565b5b6139ba82613716565b9050602081019050919050565b82818337600083830152505050565b60006139e96139e484613996565b6138ae565b905082815260208101848484011115613a0557613a04613991565b5b613a108482856139c7565b509392505050565b600082601f830112613a2d57613a2c613849565b5b8135613a3d8482602086016139d6565b91505092915050565b600080600080600060a08688031215613a6257613a616134d7565b5b6000613a708882890161352a565b9550506020613a818882890161352a565b945050604086013567ffffffffffffffff811115613aa257613aa16134dc565b5b613aae88828901613963565b935050606086013567ffffffffffffffff811115613acf57613ace6134dc565b5b613adb88828901613963565b925050608086013567ffffffffffffffff811115613afc57613afb6134dc565b5b613b0888828901613a18565b9150509295509295909350565b600067ffffffffffffffff821115613b3057613b2f61384e565b5b613b3982613716565b9050602081019050919050565b6000613b59613b5484613b15565b6138ae565b905082815260208101848484011115613b7557613b74613991565b5b613b808482856139c7565b509392505050565b600082601f830112613b9d57613b9c613849565b5b8135613bad848260208601613b46565b91505092915050565b6000819050919050565b613bc981613bb6565b8114613bd457600080fd5b50565b600081359050613be681613bc0565b92915050565b600080600080600060a08688031215613c0857613c076134d7565b5b6000613c1688828901613560565b955050602086013567ffffffffffffffff811115613c3757613c366134dc565b5b613c4388828901613b88565b9450506040613c5488828901613bd7565b9350506060613c6588828901613bd7565b925050608086013567ffffffffffffffff811115613c8657613c856134dc565b5b613c9288828901613b88565b9150509295509295909350565b600067ffffffffffffffff821115613cba57613cb961384e565b5b602082029050602081019050919050565b6000613cde613cd984613c9f565b6138ae565b90508083825260208201905060208402830185811115613d0157613d006138f5565b5b835b81811015613d2a5780613d16888261352a565b845260208401935050602081019050613d03565b5050509392505050565b600082601f830112613d4957613d48613849565b5b8135613d59848260208601613ccb565b91505092915050565b60008060408385031215613d7957613d786134d7565b5b600083013567ffffffffffffffff811115613d9757613d966134dc565b5b613da385828601613d34565b925050602083013567ffffffffffffffff811115613dc457613dc36134dc565b5b613dd085828601613963565b9150509250929050565b600081519050919050565b600082825260208201905092915050565b6000819050602082019050919050565b613e0f8161353f565b82525050565b6000613e218383613e06565b60208301905092915050565b6000602082019050919050565b6000613e4582613dda565b613e4f8185613de5565b9350613e5a83613df6565b8060005b83811015613e8b578151613e728882613e15565b9750613e7d83613e2d565b925050600181019050613e5e565b5085935050505092915050565b60006020820190508181036000830152613eb28184613e3a565b905092915050565b613ec381613501565b82525050565b6000602082019050613ede6000830184613eba565b92915050565b7f4e487b7100000000000000000000000000000000000000000000000000000000600052602160045260246000fd5b600f8110613f2457613f23613ee4565b5b50565b6000819050613f3582613f13565b919050565b6000613f4582613f27565b9050919050565b613f5581613f3a565b82525050565b6000819050919050565b613f6e81613f5b565b82525050565b613f7d81613bb6565b82525050565b600061016082019050613f99600083018e613f4c565b613fa6602083018d613eba565b613fb3604083018c613eba565b613fc0606083018b6135b5565b8181036080830152613fd2818a613727565b9050613fe160a08301896135b5565b613fee60c0830188613f65565b613ffb60e0830187613f74565b614009610100830186613f74565b6140176101208301856135b5565b6140256101408301846135b5565b9c9b505050505050505050505050565b60008060006060848603121561404e5761404d6134d7565b5b600061405c86828701613560565b935050602061406d86828701613560565b925050604061407e8682870161352a565b9150509250925092565b60006020828403121561409e5761409d6134d7565b5b60006140ac8482850161352a565b91505092915050565b6140be81613664565b81146140c957600080fd5b50565b6000813590506140db816140b5565b92915050565b600080604083850312156140f8576140f76134d7565b5b60006141068582860161352a565b9250506020614117858286016140cc565b9150509250929050565b6003811061413257614131613ee4565b5b50565b600081905061414382614121565b919050565b600061415382614135565b9050919050565b61416381614148565b82525050565b60006101008201905061417f600083018b61415a565b61418c602083018a6135b5565b61419960408301896135b5565b6141a660608301886135b5565b6141b360808301876135b5565b6141c060a08301866135b5565b6141cd60c08301856135b5565b6141da60e08301846135b5565b9998505050505050505050565b6000602082840312156141fd576141fc6134d7565b5b600082013567ffffffffffffffff81111561421b5761421a6134dc565b5b61422784828501613b88565b91505092915050565b60006020820190506142456000830184613f65565b92915050565b600080600060608486031215614264576142636134d7565b5b600061427286828701613560565b935050602061428386828701613560565b925050604061429486828701613560565b9150509250925092565b6000806000606084860312156142b7576142b66134d7565b5b600084013567ffffffffffffffff8111156142d5576142d46134dc565b5b6142e186828701613b88565b935050602084013567ffffffffffffffff811115614302576143016134dc565b5b61430e86828701613b88565b925050604084013567ffffffffffffffff81111561432f5761432e6134dc565b5b61433b86828701613b88565b9150509250925092565b600060208201905061435a6000830184613f74565b92915050565b600060c082019050818103600083015261437a8189613727565b9050818103602083015261438e8188613727565b905081810360408301526143a28187613727565b90506143b160608301866135b5565b6143be60808301856135b5565b6143cb60a0830184613670565b979650505050505050565b600067ffffffffffffffff8211156143f1576143f061384e565b5b602082029050919050565b600061440f61440a846143d6565b6138ae565b90508060208402830185811115614429576144286138f5565b5b835b81811015614452578061443e8882613560565b84526020840193505060208101905061442b565b5050509392505050565b600082601f83011261447157614470613849565b5b600261447e8482856143fc565b91505092915050565b600067ffffffffffffffff8211156144a2576144a161384e565b5b602082029050919050565b60006144c06144bb84614487565b6138ae565b905080604084028301858111156144da576144d96138f5565b5b835b8181101561450357806144ef888261445c565b8452602084019350506040810190506144dc565b5050509392505050565b600082601f83011261452257614521613849565b5b600261452f8482856144ad565b91505092915050565b600067ffffffffffffffff8211156145535761455261384e565b5b602082029050919050565b600061457161456c84614538565b6138ae565b9050806020840283018581111561458b5761458a6138f5565b5b835b818110156145b457806145a08882613560565b84526020840193505060208101905061458d565b5050509392505050565b600082601f8301126145d3576145d2613849565b5b60016145e084828561455e565b91505092915050565b6000806000806101208587031215614604576146036134d7565b5b60006146128782880161445c565b94505060406146238782880161450d565b93505060c06146348782880161445c565b925050610100614646878288016145be565b91505092959194509250565b60008060408385031215614669576146686134d7565b5b60006146778582860161352a565b92505060206146888582860161352a565b9150509250929050565b600080600080600060a086880312156146ae576146ad6134d7565b5b60006146bc8882890161352a565b95505060206146cd8882890161352a565b94505060406146de88828901613560565b93505060606146ef88828901613560565b925050608086013567ffffffffffffffff8111156147105761470f6134dc565b5b61471c88828901613a18565b9150509295509295909350565b7f455243313135353a2061646472657373207a65726f206973206e6f742061207660008201527f616c6964206f776e657200000000000000000000000000000000000000000000602082015250565b6000614785602a836136d2565b915061479082614729565b604082019050919050565b600060208201905081810360008301526147b481614778565b9050919050565b7f4e487b7100000000000000000000000000000000000000000000000000000000600052602260045260246000fd5b6000600282049050600182168061480257607f821691505b60208210811415614816576148156147bb565b5b50919050565b7f546869732075736572206973206e6f7420726567697374657265640000000000600082015250565b6000614852601b836136d2565b915061485d8261481c565b602082019050919050565b6000602082019050818103600083015261488181614845565b9050919050565b7f4e487b7100000000000000000000000000000000000000000000000000000000600052601160045260246000fd5b60006148c28261353f565b91506148cd8361353f565b9250828210156148e0576148df614888565b5b828203905092915050565b60006148f68261353f565b91506149018361353f565b9250827fffffffffffffffffffffffffffffffffffffffffffffffffffffffffffffffff0382111561493657614935614888565b5b828201905092915050565b600061014082019050614957600083018d61415a565b614964602083018c6135b5565b614971604083018b6135b5565b61497e606083018a6135b5565b61498b60808301896135b5565b61499860a08301886135b5565b6149a560c08301876135b5565b6149b260e08301866135b5565b6149c06101008301856135b5565b6149ce6101208301846135b5565b9b9a5050505050505050505050565b7f455243313135353a2063616c6c6572206973206e6f7420746f6b656e206f776e60008201527f6572206e6f7220617070726f7665640000000000000000000000000000000000602082015250565b6000614a39602f836136d2565b9150614a44826149dd565b604082019050919050565b60006020820190508181036000830152614a6881614a2c565b9050919050565b7f546869732075736572206973206e6f7420766572696669656400000000000000600082015250565b6000614aa56019836136d2565b9150614ab082614a6f565b602082019050919050565b60006020820190508181036000830152614ad481614a98565b9050919050565b60008190508160005260206000209050919050565b60008154614afd816147ea565b614b0781866136d2565b94506001821660008114614b225760018114614b3457614b67565b60ff1983168652602086019350614b67565b614b3d85614adb565b60005b83811015614b5f57815481890152600182019150602081019050614b40565b808801955050505b50505092915050565b600061016082019050614b86600083018e613eba565b614b93602083018d613eba565b614ba0604083018c6135b5565b614bad606083018b6135b5565b614bba608083018a613f4c565b614bc760a08301896135b5565b614bd460c08301886135b5565b81810360e0830152614be68187614af0565b9050614bf6610100830186613f65565b614c04610120830185613f74565b614c12610140830184613f74565b9c9b505050505050505050505050565b7f455243313135353a206163636f756e747320616e6420696473206c656e67746860008201527f206d69736d617463680000000000000000000000000000000000000000000000602082015250565b6000614c7e6029836136d2565b9150614c8982614c22565b604082019050919050565b60006020820190508181036000830152614cad81614c71565b9050919050565b7f4e487b7100000000000000000000000000000000000000000000000000000000600052603260045260246000fd5b6000614cee8261353f565b91507fffffffffffffffffffffffffffffffffffffffffffffffffffffffffffffffff821415614d2157614d20614888565b5b600182019050919050565b7f4e6f7420656e6f75676820736861646f777a0000000000000000000000000000600082015250565b6000614d626012836136d2565b9150614d6d82614d2c565b602082019050919050565b60006020820190508181036000830152614d9181614d55565b9050919050565b7f4f6e6c79206f776e65722063616e2063616c6c20746869732066756e6374696f60008201527f6e00000000000000000000000000000000000000000000000000000000000000602082015250565b6000614df46021836136d2565b9150614dff82614d98565b604082019050919050565b60006020820190508181036000830152614e2381614de7565b9050919050565b600081905092915050565b6000614e40826136c7565b614e4a8185614e2a565b9350614e5a8185602086016136e3565b80840191505092915050565b6000614e728284614e35565b915081905092915050565b6000614e888261353f565b9150614e938361353f565b9250817fffffffffffffffffffffffffffffffffffffffffffffffffffffffffffffffff0483118215151615614ecc57614ecb614888565b5b828202905092915050565b7f4e6f7420656e6f75676820736861646f777a20746f207570677261646520746860008201527f6520706c61636500000000000000000000000000000000000000000000000000602082015250565b6000614f336027836136d2565b9150614f3e82614ed7565b604082019050919050565b60006020820190508181036000830152614f6281614f26565b9050919050565b7f43616e6e6f7420646f776e677261646520746865206c6576656c206f6620746860008201527f6520706c61636500000000000000000000000000000000000000000000000000602082015250565b6000614fc56027836136d2565b9150614fd082614f69565b604082019050919050565b60006020820190508181036000830152614ff481614fb8565b9050919050565b7f4e6f7420656e6f75676820737061726b7a000000000000000000000000000000600082015250565b60006150316011836136d2565b915061503c82614ffb565b602082019050919050565b6000602082019050818103600083015261506081615024565b9050919050565b7f596f752061726520616c72656164792072656769737465726564000000000000600082015250565b600061509d601a836136d2565b91506150a882615067565b602082019050919050565b600060208201905081810360008301526150cc81615090565b9050919050565b600060a08201905081810360008301526150ed8188614af0565b905081810360208301526151018187614af0565b905081810360408301526151158186614af0565b905061512460608301856135b5565b61513160808301846135b5565b9695505050505050565b7f4e6f7420656e6f75676820737061726b7a20746f2061747461636b0000000000600082015250565b6000615171601b836136d2565b915061517c8261513b565b602082019050919050565b600060208201905081810360008301526151a081615164565b9050919050565b600060029050919050565b600081905092915050565b6000819050919050565b6000602082019050919050565b6151dd816151a7565b6151e781846151b2565b92506151f2826151bd565b8060005b8381101561522357815161520a8782613e15565b9650615215836151c7565b9250506001810190506151f6565b505050505050565b600060029050919050565b600081905092915050565b6000819050919050565b600081905092915050565b61525f816151a7565b615269818461524b565b9250615274826151bd565b8060005b838110156152a557815161528c8782613e15565b9650615297836151c7565b925050600181019050615278565b505050505050565b60006152b98383615256565b60408301905092915050565b6000602082019050919050565b6152db8161522b565b6152e58184615236565b92506152f082615241565b8060005b8381101561532157815161530887826152ad565b9650615313836152c5565b9250506001810190506152f4565b505050505050565b600060019050919050565b600081905092915050565b6000819050919050565b6000602082019050919050565b61535f81615329565b6153698184615334565b92506153748261533f565b8060005b838110156153a557815161538c8782613e15565b965061539783615349565b925050600181019050615378565b505050505050565b6000610120820190506153c360008301876151d4565b6153d060408301866152d2565b6153dd60c08301856151d4565b6153eb610100830184615356565b95945050505050565b600081519050615403816140b5565b92915050565b60006020828403121561541f5761541e6134d7565b5b600061542d848285016153f4565b91505092915050565b7f4c6f636174696f6e206e6f742076657269666965640000000000000000000000600082015250565b600061546c6015836136d2565b915061547782615436565b602082019050919050565b6000602082019050818103600083015261549b8161545f565b9050919050565b7f455243313135353a2069647320616e6420616d6f756e7473206c656e6774682060008201527f6d69736d61746368000000000000000000000000000000000000000000000000602082015250565b60006154fe6028836136d2565b9150615509826154a2565b604082019050919050565b6000602082019050818103600083015261552d816154f1565b9050919050565b7f455243313135353a207472616e7366657220746f20746865207a65726f20616460008201527f6472657373000000000000000000000000000000000000000000000000000000602082015250565b60006155906025836136d2565b915061559b82615534565b604082019050919050565b600060208201905081810360008301526155bf81615583565b9050919050565b7f455243313135353a20696e73756666696369656e742062616c616e636520666f60008201527f72207472616e7366657200000000000000000000000000000000000000000000602082015250565b6000615622602a836136d2565b915061562d826155c6565b604082019050919050565b6000602082019050818103600083015261565181615615565b9050919050565b600060408201905081810360008301526156728185613e3a565b905081810360208301526156868184613e3a565b90509392505050565b7f43616e6e6f742073657420757269207477696365000000000000000000000000600082015250565b60006156c56014836136d2565b91506156d08261568f565b602082019050919050565b600060208201905081810360008301526156f4816156b8565b9050919050565b7f455243313135353a2073657474696e6720617070726f76616c2073746174757360008201527f20666f722073656c660000000000000000000000000000000000000000000000602082015250565b60006157576029836136d2565b9150615762826156fb565b604082019050919050565b600060208201905081810360008301526157868161574a565b9050919050565b60006040820190506157a260008301856135b5565b6157af60208301846135b5565b9392505050565b600081519050919050565b600082825260208201905092915050565b60006157dd826157b6565b6157e781856157c1565b93506157f78185602086016136e3565b61580081613716565b840191505092915050565b600060a0820190506158206000830188613eba565b61582d6020830187613eba565b818103604083015261583f8186613e3a565b905081810360608301526158538185613e3a565b9050818103608083015261586781846157d2565b90509695505050505050565b6000815190506158828161360b565b92915050565b60006020828403121561589e5761589d6134d7565b5b60006158ac84828501615873565b91505092915050565b60008160e01c9050919050565b600060033d11156158e15760046000803e6158de6000516158b5565b90505b90565b600060443d10156158f457615977565b6158fc6134cd565b60043d036004823e80513d602482011167ffffffffffffffff82111715615924575050615977565b808201805167ffffffffffffffff8111156159425750505050615977565b80602083010160043d03850181111561595f575050505050615977565b61596e8260200185018661387d565b82955050505050505b90565b7f455243313135353a207472616e7366657220746f206e6f6e204552433131353560008201527f526563656976657220696d706c656d656e746572000000000000000000000000602082015250565b60006159d66034836136d2565b91506159e18261597a565b604082019050919050565b60006020820190508181036000830152615a05816159c9565b9050919050565b7f455243313135353a204552433131353552656365697665722072656a6563746560008201527f6420746f6b656e73000000000000000000000000000000000000000000000000602082015250565b6000615a686028836136d2565b9150615a7382615a0c565b604082019050919050565b60006020820190508181036000830152615a9781615a5b565b9050919050565b7f455243313135353a206d696e7420746f20746865207a65726f2061646472657360008201527f7300000000000000000000000000000000000000000000000000000000000000602082015250565b6000615afa6021836136d2565b9150615b0582615a9e565b604082019050919050565b60006020820190508181036000830152615b2981615aed565b9050919050565b600060a082019050615b456000830188613eba565b615b526020830187613eba565b615b5f60408301866135b5565b615b6c60608301856135b5565b8181036080830152615b7e81846157d2565b9050969550505050505056fea26469706673582212209d7482b9b359b1bdb06c6def4fd3ce3c28c5155a949ac1822cdc2972fe73894864736f6c634300080b0033",
    "linkReferences": {},
    "deployedLinkReferences": {}
}